:020000040800F2
:100000000050002021020008270200082B020008EF
:100010009D020008A1020008E9020008000000009B
:100020000000000000000000000000003103000894
:100030003503000800000000390300082D1F0008E8
:100040004D0300084D0300084D0300084D03000850
:100050004D0300084D0300084D0300084D03000840
:100060004D0300084D0300084D0300084D03000830
:100070004D0300084D0300084D0300084D03000820
:100080004D0300084D0300084D0300084D03000810
:100090004D0300084D0300084D0300084D03000800
:1000A0004D0300084D0300084D0300084D030008F0
:1000B000A52000084D0300084D0300084D0300086B
:1000C0004D0300084D0300084D0300084D030008D0
:1000D0004D030008592400084D0300084D03000893
:1000E000CD1E00084D0300084D030008000000006D
:1000F0000000000000000000000000000000000000
:1001000000000000000000005FF808F100B583B0B7
:1001100001F03CFD304B314A1360314A1360314BE2
:10012000314A03E052F8041B43F8041B2F498B4269
:10013000F8D32A4B1A682E4B9A4200D0FEE7284B80
:100140001A682C4B9A42F9D1234B2B4A13602B4A45
:1001500013602B4B02E0002243F8042B294A934200
:10016000F9D3254B1B6813B9244B1B6803B1FEE779
:1001700001F018FD694601A801F098FC224C234BC0
:10018000E41AA410002504E0204B53F825309847CA
:100190000135AC42F8DC1E4C1E4BE41AA4100025BD
:1001A00004E01C4B53F8253098470135AC42F8DC8D
:1001B0000099019802F03CF80546174C174BE41AD9
:1001C000A41004E0013C154B53F824309847002C50
:1001D000F8DC284601F03CFCBABADECA0000002078
:1001E000B400002000000020D4500008B800002017
:1001F0007856341232547698B800002060090020F6
:10020000B800002064090020780300087803000883
:1002100078030008780300087803000878030008D2
:1002200008B5FFF773FF00BEFEE71EF0040F0CBF1A
:10023000EFF30880EFF309807146414A10472DE93A
:10024000F04182B004468846124B5E6B9F6B9D6AFC
:100250001B6B13F0020F03D00E4BDB6A002B0CDB81
:100260000D4801F035FCCDF800803B46324629466A
:10027000204601F09BFC00BEFEE74BF6AB6101F0AF
:100280000FFD0028ECD0034B4FF00042DA6202B0C1
:10029000BDE8F08100ED00E05C50000800BEFEE724
:1002A0001EF0040F0CBFEFF30880EFF309807146D6
:1002B000244A10472DE9F04182B004468846084B95
:1002C0005E6B9F6B9D6A074801F002FCCDF80080D1
:1002D0003B4632462946204601F068FC00BEFEE758
:1002E00000ED00E06C5000081EF0040F0CBFEFF3AF
:1002F0000880EFF309807146134A10472DE9F04159
:1003000082B004468846084B5E6B9F6B9D6A074827
:1003100001F0DEFBCDF800803B4632462946204600
:1003200001F044FC00BEFEE700ED00E0785000085C
:1003300000BEFEE700BEFEE700BEFEE7704700001D
:100340003F020008B5020008FD02000800BEFEE7FB
:10035000D450000800000020B8000020D45000084D
:100360000000000000000000B80000206409002028
:08037000000000000000000085
:1003780010B50446C378012B26D863780F2B28D8EC
:10038800A3780F2B2AD8E3786BB31C4BDA68D243D7
:10039800C2F30222C2F104000F2323FA02F26178A9
:1003A8008140A37813400B431B012278DBB2144928
:1003B8000A4482F80033237803F01F005B09012206
:1003C800824041F8232010BD75210E4801F072FBD0
:1003D800D3E776210B4801F06DFBD1E77721094877
:1003E80001F068FBCFE7237803F01F015B090122C6
:1003F8008A402033024941F82320E4E700ED00E079
:1004080000E100E0AC4D000838B505460C46484B05
:1004180098420BD003F58063984207D003F5A053A8
:10042800984203D0E521434801F044FB2368D3B147
:10043800B3F5803F17D0B3F5003F14D0B3F5403F74
:1004480011D0B3F5802F0ED0B3F5A02F0BD0B3F594
:10045800C02F08D0B3F5E02F05D0B3F5002F02D098
:10046800B3F5102F46D12379012B48D86379012B96
:100478004AD8A368A3B1B3F5003F11D0B3F5802FD4
:100488000ED0B3F5C02F0BD0B3F5002F08D0B3F5BD
:10049800202F05D0B3F5402F02D0B3F5602F38D107
:1004A800E36813B1B3F5006F38D1237C013BDBB2AD
:1004B8000F2B38D86A6822F4702222F480722368DD
:1004C800217943EA012313436B60AB681A4A1A4047
:1004D800E368A1680B43617943EA41031343AB60C6
:1004E800EB6A23F47003227C013AD2B243EA025346
:1004F800EB6238BDE6210F4801F0DCFAB3E7E721EB
:100508000C4801F0D7FAB1E7E8210A4801F0D2FA1D
:10051800AFE7E921074801F0CDFAC1E7EA2105482C
:1005280001F0C8FAC1E7EB21024801F0C3FAC1E7BC
:1005380000240140D44D0008FDF7F1FF38B504460A
:100548000D46114B98420CD003F58063984208D0B1
:1005580003F5A053984204D04FF49A710B4801F068
:10056800A9FA012D05D855B1A36843F00103A3608A
:1005780038BD40F23511054801F09CFAF3E7A3684D
:1005880023F00103A360F3E700240140D44D0008E1
:1005980010B504460A4B98420CD003F58063984284
:1005A80008D003F5A053984204D04FF4C27105480F
:1005B80001F080FAA36843F00803A36010BD00BFF0
:1005C80000240140D44D000810B504460B4B984256
:1005D8000CD003F58063984208D003F5A0539842E5
:1005E80004D04FF4C971064801F064FAA36813F007
:1005F800080F01D0012010BD0020FCE700240140B5
:10060800D44D000810B504460A4B98420CD003F5A7
:100618008063984208D003F5A053984204D04FF461
:10062800D571054801F046FAA36843F00403A360B6
:1006380010BD00BF00240140D44D000810B5044689
:100648000B4B98420CD003F58063984208D003F511
:10065800A053984204D04FF4DC71064801F02AFAFE
:10066800A36813F0040F01D0012010BD0020FCE79F
:1006780000240140D44D000838B504460D46114BFE
:1006880098420CD003F58063984208D003F5A05334
:10069800984204D04FF4E9710B4801F00BFA012D90
:1006A80005D855B1A36843F4A003A36038BD40F250
:1006B800D311054801F0FEF9F3E7A36823F4A0037A
:1006C800A360F3E700240140D44D0008F8B50546BF
:1006D8000E4614461F46374B98420CD003F58063EC
:1006E800984208D003F5A053984204D04FF41671ED
:1006F800314801F0DFF9112E22D8631EDBB20F2B2F
:1007080024D8072F28D8092E2CD9EA68A6F10A037D
:1007180003EB43030721994022EA01029F40174354
:10072800EF60062C29D8696B013C04EB84041F2375
:10073800A34021EA030106FA04F40C436C63F8BDF4
:1007480040F259211C4801F0B5F9D6E740F25A2188
:10075800194801F0AFF9D4E740F25B21164801F0DF
:10076800A9F9D0E72B6906EB460107228A4023EA5C
:1007780002038F401F432F61D3E70C2C0CD8296B41
:10078800073C04EB84041F23A34021EA030106FA73
:1007980004F40C432C63D2E7EB6AA4F10D0101EBDE
:1007A80081011F228A4023EA020306FA01F1194354
:1007B800E962C4E700240140D44D000810B504469E
:1007C800094B98420CD003F58063984208D003F592
:1007D800A053984204D040F2CD21044801F06AF9B0
:1007E800E06C80B210BD00BF00240140D44D000869
:1007F80010B5044603790BB1042B3FD16379082B5C
:1008080003D00C2B01D0102B3DD12268130D1B05F2
:1008180003B91AB96C212B4801F04CF9A379012BC3
:1008280036D8A379002B42D0274B1A68216822EAD0
:1008380001021A605A68216822EA01025A60227984
:1008480002F1804202F5823211682068014311608A
:100858009A68216822EA01029A60DA68216822EA25
:100868000102DA606379102B17D003F1804303F596
:1008780082331A6821680A431A6022E06A21114803
:1008880001F018F9BAE76B210E4801F013F9BCE73B
:100898006D210C4801F00EF9C3E70B4B9A682168EB
:1008A8000A439A60DA6821680A43DA6009E0237922
:1008B80003F1804303F582331A68216822EA0102B2
:1008C8001A6010BD044E00080004014010B504462B
:1008D800431E012B2FD904282DD008282BD01028EF
:1008E80029D0202827D0402825D0802823D0B0F52B
:1008F800807F20D0B0F5007F1DD0B0F5806F1AD072
:10090800B0F5006F17D0B0F5805F14D0B0F5005F78
:1009180011D0B0F5804F0ED0B0F5004F0BD0B0F528
:10092800803F08D0B0F5003F05D0B0F5802F02D049
:10093800B0F5002F08D1094A1368234052692242B2
:1009480007D043B9002005E0E521054801F0B2F8D9
:10095800F1E7002010BD0120FCE700BF00040140C2
:10096800044E000810B50446030D1B0503B918B959
:10097800FC21034801F09EF8024B5C6110BD00BFEA
:10098800044E000800040140F8B505460C46494BE2
:1009980098421BD003F58063984217D003F5806313
:1009A800984213D003F5806398420FD003F5806313
:1009B80098420BD003F58063984207D003F5806313
:1009C800984203D0B2213C4801F074F8E3786BB147
:1009D800042B0BD0282B09D0482B07D0142B05D07B
:1009E800102B03D01C2B01D0182B14D12388BBB19A
:1009F800E37803F00F06304613F0100F06D0A37803
:100A0800013BDBB2022B10D8A078304323785BB3CC
:100A18002E68002310E0B321274801F04BF8E5E7E2
:100A2800B421254801F046F8E2E7BB21224801F04D
:100A380041F8E9E76A610133072B14D801229A408B
:100A4800218832EA0101F6D199000F278F4026EA62
:100A5800070600FA01F10E43E1782829EAD048296F
:100A6800E9D12A61E7E72E602388FF2B20D96E6839
:100A7800002302E06A6115E00133072B17D803F160
:100A8800080101228A40218832EA0101F4D1990043
:100A98000F278F4026EA070600FA01F10E43E17896
:100AA8002829E7D0E1784829E6D12A61E4E76E6091
:100AB800F8BD00BF00080140384E000870B5054673
:100AC8000C46062817D80F2C1BD804F003029200F6
:100AD8000F2000FA02F6A1080D4B023153F821004D
:100AE80020EA060043F8210053F821009540054309
:100AF80043F8215070BD40F26521064800F0DAFF46
:100B0800E1E740F26621034800F0D4FFDDE700BFCB
:100B180000000140384E00080D4B1A6842F00102EF
:100B28001A6059680B4A0A405A601A6822F084729F
:100B380022F480321A601A6822F480221A605A68F5
:100B480022F4FE025A604FF41F029A60704700BFF9
:100B5800001002400000FFF810B5044628B1B0F5B7
:100B6800803F02D0B0F5802F0FD1114B1A6822F4C4
:100B780080321A601A6822F480221A60B4F5803F25
:100B880009D0B4F5802F0CD010BD40F211110948DE
:100B980000F090FFE9E7064A136843F480331360D6
:100BA800F2E7034A136843F4A0231360ECE700BF9D
:100BB800001002406C4E000838B50D46044628B1B6
:100BC800B0F5803F02D0B0F5403F32D14DB3B5F516
:100BD800802F26D0B5F5002F23D0B5F5402F20D093
:100BE800B5F5801F1DD0B5F5A01F1AD0B5F5C01FEB
:100BF80017D0B5F5E01F14D0B5F5001F11D0B5F525
:100C0800101F0ED0B5F5201F0BD0B5F5301F08D03A
:100C1800B5F5401F05D0B5F5501F02D0B5F5601FDA
:100C28000DD10A4A536823F47C132C431C435460A7
:100C380038BD40F27F11064800F03CFFC6E74FF48C
:100C4800C071034800F036FFEBE700BF0010024018
:100C58006C4E000810B50446012802D8044B1C60ED
:100C680010BD4FF4CA71034800F024FFF6E700BF37
:100C7800600042426C4E000810B50446022806D8AF
:100C8800064A536823F003031C43546010BD4FF415
:100C98000E71034800F00EFFF2E700BF001002409B
:100CA8006C4E0008024B586800F00C00704700BFFB
:100CB8000010024010B5044678B180280DD0902865
:100CC8000BD0A02809D0B02807D0C02805D0D0283C
:100CD80003D0E02801D0F02806D1064A536823F053
:100CE800F0031C43546010BD4FF41971024800F022
:100CF800E1FEF2E7001002406C4E000810B5044611
:100D080058B1B0F5806F08D0B0F5A06F05D0B0F538
:100D1800C06F02D0B0F5E06F06D1064A536823F4DD
:100D2800E0631C43546010BD40F27E21024800F08D
:100D3800C1FEF2E7001002406C4E000810B50446F0
:100D480058B1B0F5806F08D0B0F5A06F05D0B0F5F8
:100D5800C06F02D0B0F5E06F07D1074B586820F498
:100D6800605040EAC400586010BD4FF42671034833
:100D780000F0A0FEF1E700BF001002406C4E000832
:100D880010B5044640B1B0F5804F05D0B0F5004F1E
:100D980002D0B0F5404F06D1064A536823F44043C9
:100DA8001C43546010BD40F20231034800F082FE3B
:100DB800F2E700BF001002406C4E000810B4294B47
:100DC8005B6803F00C03042B2BD0082B2CD013B139
:100DD800254B036001E0244B036022494B68C3F3B1
:100DE8000313224CE35CDAB20368D34043604A68D9
:100DF800C2F30222A25CD2B223FA02F282604A68EB
:100E0800C2F3C222A25CD2B2D340C3604A68C2F322
:100E1800813217498A5CD2B2B3FBF2F3036110BC8A
:100E28007047114B0360D8E70E4A53685268C3F302
:100E38008343023312F4803F04D10E4A02FB03F3CA
:100E48000360CAE7074A526812F4003F04D0094A0F
:100E580002FB03F30360C0E7034A02FB03F30360EA
:100E6800BBE700BF0010024000127A000800002013
:100E78000400002000093D0038B504460D460E4B1D
:100E8800034003B920B940F24A410C4800F012FE71
:100E9800012D05D855B10A4A93691C43946138BDA0
:100EA80040F24B41054800F005FEF3E7044A936918
:100EB80023EA04049461F2E70200C0FF6C4E0008C4
:100EC8000010024038B504460D460E4B184200D1BA
:100ED80020B940F269410C4800F0ECFD012D05D81D
:100EE80055B10A4AD3691C43D46138BD40F26A41FE
:100EF800054800F0DFFDF3E7044AD36923EA040458
:100F0800D461F2E7003601816C4E000800100240FF
:100F180010B50446212813D0312811D039280FD014
:100F280041280DD061280BD07A2809D07B2807D01A
:100F38007C2805D07D2803D07E2801D07F280FD1BA
:100F48006309012B12D0022B13D00C4B5B6A04F0FF
:100F58001F0423FA04F414F0010F0DD0012010BD72
:100F680040F23451064800F0A5FDE9E7034B1B6841
:100F7800EDE7024B1B6AEAE70020F0E700100240A9
:100F88006C4E000800B583B0002301933120FFF7B1
:100F9800BFFF019B01330193019BB3F5A06F01D003
:100FA8000028F3D03120FFF7B3FF18B1012003B0B8
:100FB8005DF804FB0020FAE738B504460D46534BAC
:100FC800984242D0B0F1804F3FD0A3F59433984275
:100FD8003BD003F58063984237D003F5806398428D
:100FE80033D003F5806398422FD003F5806398428D
:100FF8002BD003F59033984227D003F5C05398427D
:1010080023D003F5806398421FD003F5806398428C
:101018001BD0A3F59E33984217D003F580639842FE
:1010280013D003F5806398420FD003F590339842AC
:101038000BD003F58063984207D003F5806398428C
:1010480003D0E721324800F035FD6B883BB1102B07
:1010580005D0202B03D0402B01D0602B4CD1EB883E
:101068002BB1B3F5807F02D0B3F5007F49D1238837
:101078009BB2264A944212D002F5006294420ED0E6
:10108800B4F1804F0BD0A2F59832944207D002F504
:101098008062944203D002F58062944203D123F027
:1010A80070036A8813431B4A944208D002F5806291
:1010B800944204D023F440739BB2EA8813432380FC
:1010C800AB88A3852B882385104B9C420FD003F552
:1010D80000639C420BD003F540639C4207D003F5A4
:1010E80080639C4203D003F580639C4201D12B7A34
:1010F80023860123A38238BDE821054800F0DAFCE5
:10110800ADE7E921024800F0D5FCB0E7002C01402A
:101118009C4E0008001000402DE9F04104460E46A0
:10112800574B984217D0B0F1804F14D0A3F59433A1
:10113800984210D003F5806398420CD003F5806381
:10114800984208D003F59433984204D040F2C11174
:101158004C4800F0AFFC33884BB1102B07D0202B44
:1011680005D0302B03D0602B01D0702B5DD1738854
:10117800012B60D833890BB1022B62D1238C9BB22F
:1011880023F480739BB22384258CADB2B4F8048019
:101198001FFA88F8A78BBFB227F0730733881F435D
:1011A80025F4007533891B029BB22B4375882D02E9
:1011B800ADB21D43324B9C4203D003F500639C4201
:1011C8002BD1B3880BB1042B41D173890BB1082BF8
:1011D80043D1F389B3F5007F01D0002B43D1B38904
:1011E800B3F5807F01D0002B43D125F400657389C6
:1011F8001B029BB21D4325F48065B3881B029BB27A
:101208001D4328F44058B3891B019BB248EA0308E0
:10121800F3891B019BB243EA0808A4F80480A7835A
:10122800F388A3872584BDE8F0814FF4E171154860
:1012380000F040FC9BE740F2C311124800F03AFC72
:1012480098E74FF4E2710F4800F034FC96E74FF44A
:10125800F0710C4800F02EFCB7E740F2E1110948A4
:1012680000F028FCB5E74FF4F171064800F022FCC5
:10127800B5E740F2E311034800F01CFCB5E700BFF6
:10128800002C01409C4E000838B504460D462E4BF4
:10129800984243D0B0F1804F40D0A3F594339842A0
:1012A8003CD003F58063984238D003F580639842B8
:1012B80034D003F58063984230D003F580639842B8
:1012C8002CD003F59033984228D003F5C0539842A8
:1012D80024D003F58063984220D003F580639842B8
:1012E8001CD0A3F59E33984218D003F5806398422A
:1012F80014D003F58063984210D003F590339842D8
:101308000CD003F58063984208D003F580639842B7
:1013180004D040F229310D4800F0CCFB012D05D84E
:1013280055B1238843F00103238038BD40F22A31A8
:10133800064800F0BFFBF3E723889BB223F00103C4
:101348009BB22380F1E700BF002C01409C4E0008AF
:1013580070B504460D461646304B984243D0B0F15E
:10136800804F40D0A3F5943398423CD003F5806376
:10137800984238D003F58063984234D003F58063EF
:10138800984230D003F5806398422CD003F590330F
:10139800984228D003F5C053984224D003F58063BF
:1013A800984220D003F5806398421CD0A3F59E3361
:1013B800984218D003F58063984214D003F58063EF
:1013C800984210D003F5903398420CD003F580630F
:1013D800984208D003F58063984204D040F26B31FC
:1013E8000F4800F067FB15F47F4F00D125B94FF483
:1013F8005B710B4800F05EFB012E04D84EB1A38947
:101408001D43A58170BD40F26D31054800F052FBC7
:10141800F4E7A38923EA0505A581F3E7002C014039
:101428009C4E000838B504460D462E4B984243D0D2
:10143800B0F1804F40D0A3F5943398423CD003F5E7
:101448008063984238D003F58063984234D003F51E
:101458008063984230D003F5806398422CD003F51E
:101468009033984228D003F5C053984224D003F50E
:101478008063984220D003F5806398421CD0A3F57E
:101488009E33984218D003F58063984214D003F530
:101498008063984210D003F5903398420CD003F53E
:1014A8008063984208D003F58063984204D040F2E4
:1014B80084510D4800F0FEFA012D05D855B1238856
:1014C80043F08003238038BD40F28551064800F080
:1014D800F1FAF3E723889BB223F080039BB22380C1
:1014E800F1E700BF002C01409C4E000838B50446C7
:1014F8000D46154B984217D0B0F1804F14D0A3F584
:101508009433984210D003F5806398420CD003F5C9
:101518008063984208D003F59433984204D040F28F
:101528001A610A4800F0C6FA082D00D035B9A18B17
:1015380089B221F008012943A18338BD40F21B611B
:10154800024800F0B7FAF2E7002C01409C4E000870
:1015580030B587B004460D46674B984213D0A3F5C3
:10156800744398420FD003F5806398420BD003F57B
:101578008063984207D003F58063984203D0B8216E
:101588005E4800F097FA2B68013B5D4A934200F2EF
:101598008580AB881BB1B3F5805F40F08480EB8811
:1015A80043B1B3F5805F05D0B3F5005F02D0B3F562
:1015B800405F7DD12B892BB1B3F5806F02D0B3F595
:1015C800C06F7AD16A8922F00C039BB203B91AB9A9
:1015D800BD214A4800F06EFAAB8943B1B3F5807F6C
:1015E80005D0B3F5007F02D0B3F5407F6AD1AB894F
:1015F80073B1414B9C420BD0A3F574439C4207D076
:1016080003F580639C4203D0C2213C4800F052FAA3
:10161800238A9BB2EA8823F4405313432382A38985
:101628009BB2A98828896A8901430A4323F4B053E5
:1016380023F00C031343A381A38A9BB2AA8923F442
:1016480040731343A38201A8FFF7B8FB2A4B9C42BF
:101658003DD0039BA28912F4004F3AD103EB8303D8
:1016680003EB830329688900B3FBF1F1254BA3FB46
:10167800012358090501642300FB1313A28912F4FE
:10168800004F2FD11B0132331E4AA2FB0323C3F3A1
:1016980043132B439BB2238107B030BDB9211748B0
:1016A80000F008FA75E7BA21144800F003FA76E763
:1016B800BB21124800F0FEF97CE7BC210F4800F07E
:1016C800F9F97FE7BE210D4800F0F4F98FE7049B94
:1016D800C0E703EB830303EB830329684900B3FBEB
:1016E800F1F1C3E7DA003232064BA3FB0232C2F350
:1016F800421242EA0503CDE700380140CC4E00080B
:101708001FAA44001F85EB5138B504460D46164BF9
:10171800984214D0A3F57443984210D003F580631F
:1017280098420CD003F58063984208D003F5806393
:10173800984204D04FF4B1710C4800F0BBF9012D68
:1017480005D855B1A38943F40053A38138BD40F2AD
:101758006311064800F0AEF9F3E7A3899BB223F4BE
:1017680000539BB2A381F1E700380140CC4E00083A
:1017780070B505460C461646384B984214D0A3F56A
:101788007443984210D003F5806398420CD003F557
:101798008063984208D003F58063984204D040F2F1
:1017A80089112F4800F086F9282C19D040F22773A8
:1017B8009C4215D040F226639C4211D040F225533A
:1017C8009C420DD040F224439C4209D040F6460387
:1017D8009C4205D040F66A139C4201D0602C16D179
:1017E800012E1AD840F66A139C421CD0C4F3421248
:1017F80004F01F04012303FA04F49A4224D0022AB5
:1018080024D0143526B32B681C432C6070BD4FF4CC
:10181800C571134800F04EF9E2E740F28B11104809
:1018280000F048F9DEE70D4B9D42DFD0A3F5744385
:101838009D42DBD003F580639D42D7D040F28F11E3
:10184800074800F037F9D1E70C35DBE71035D9E761
:101858002B6823EA04042C60D8E700BF0038014055
:10186800CC4E000810B504460D4B984214D0A3F591
:101878007443984210D003F5806398420CD003F566
:101888008063984208D003F58063984204D04FF4EF
:101898001C71044800F00EF9A088C0F3080010BDC0
:1018A80000380140CC4E000838B505460C463B4B85
:1018B800984214D0A3F57443984210D003F580637E
:1018C80098420CD003F58063984208D003F58063F2
:1018D800984204D040F2D931314800F0EBF8282C76
:1018E80020D040F227739C421CD040F226639C42D1
:1018F80018D040F225539C4214D040F224439C4215
:1019080010D040F646039C420CD040F66A139C4225
:1019180008D0B4F5587F05D0B4F5187F02D0B4F5D7
:10192800B07F19D140F66A139C421BD0C4F342120F
:1019380004F01F0101238B40012A24D0022A25D05C
:10194800AA8A1340240A012202FA04F42A881440BD
:10195800FBB104BB00201DE040F2DA31104800F072
:10196800A9F8DFE70D4B9D42E0D0A3F574439D42F3
:10197800DCD003F580639D42D8D040F2DE310848C0
:1019880000F098F8D2E7AA891340DBE72A8A1340C7
:10199800D8E7002038BD0120FCE700BF003801402F
:1019A800CC4E000838B505460C46254B984214D055
:1019B800A3F57443984210D003F5806398420CD085
:1019C80003F58063984208D003F58063984204D0F9
:1019D80040F222411B4800F06DF840F226639C4219
:1019E8000BD040F225539C4207D040F646039C4258
:1019F80003D040F66A139C420BD140F66A139C420E
:101A08000DD0240A0123A3409BB2DB439BB22B8059
:101A180038BD40F223410B4800F04CF8EDE7084B85
:101A28009D42EED0A3F574439D42EAD003F580634E
:101A38009D42E6D040F22741024800F03BF8E0E73B
:101A480000380140CC4E0008FEE7000008B5034806
:101A580000F054F80120FFF7F7FF00BF004F00081F
:101A680008B503460C4A12685AB10B4A106803338A
:101A780023F003030344094A934206D8064A136035
:101A880008BD054A06491160EFE702F033FD0C2353
:101A980003604FF0FF30F3E7BC000020004C00204B
:101AA8006409002001230360014B0B60704700BFED
:101AB8001800002008B50A460146024800F004F85C
:101AC800FFF7C4FF144F00080FB400B583B004AB90
:101AD80053F8042B01938021074802F003FE0028E5
:101AE80004DC03B05DF804EB04B07047014602481B
:101AF80000F044F8F5E700BFC400002010B5044624
:101B080002F0BCFD0146204600F038F801210248E9
:101B180000F034F810BD00BFD84F00082DE9F0439D
:101B280085B004460F46435633BB04252846214654
:101B3800ABBE0446384605B0BDE8F08304AA13449A
:101B4800002203F8102C4FF00408E94640464946A5
:101B5800ABBE8046761B002EECD03546102E28BF33
:101B680010250023AB42E9D214F9011B04AA1A4438
:101B780002F8101C0133F5E70E46ECE708B5FFF74D
:101B8800CDFF08BD08B500F0FDF8024A024B9A6087
:101B980008BD00BF0000000800ED00E008B500F037
:101BA80019F908BDF8B504460D4617461E462748DC
:101BB800FFF78AFF21682648FFF786FF61682548F6
:101BC800FFF782FFA1682448FFF77EFFE1682348FA
:101BD800FFF77AFF21692248FFF776FF61692148FC
:101BE800FFF772FFA1692048FFF76EFFE1691F4800
:101BF800FFF76AFF1E48FFF767FF29461D48FFF7F2
:101C080063FF1D4CE16A1D48FFF75EFF216B1C480E
:101C1800FFF75AFFE16B1B48FFF756FF15F0800FDF
:101C28000AD115F4004F0CD11748FFF74DFF06995C
:101C38001648FFF749FFF8BD39461548FFF744FF36
:101C4800EFE731461348FFF73FFFEDE7404F000845
:101C5800504F0008604F0008704F0008804F000880
:101C6800904F0008A04F0008B04F0008C04F000870
:101C7800D04F0008DC4F000800ED00E0EC4F0008F2
:101C8800FC4F00080C5000083C5000084450000865
:101C98001C5000082C50000883691A888A4201D019
:101CA800002070470268033A012A01D900207047D2
:101CB800023383610120704782B0002301930093AF
:101CC8002C4A136843F4803313602A4B1B6803F4CF
:101CD80000330093019B01330193009B1BB9019BC7
:101CE800B3F5A06FF1D1234B1B6813F4003F06D066
:101CF80001230093009B012B04D002B070470023FE
:101D08000093F7E71C4B1A6842F010021A601A6831
:101D180022F003021A601A6842F002021A60A3F560
:101D280080535A685A605A685A605A6842F4806206
:101D38005A605A6822F47C125A605A6842F4E812CF
:101D48005A601A6842F080721A600A4B1B6813F0D6
:101D5800007FFAD0074B5A6822F003025A605A688B
:101D680042F002025A60034B5B6803F00C03082B35
:101D7800F9D1C2E7001002400020024008B5FFF781
:101D88009BFF08BD08B5104B1A6842F001021A60A3
:101D980059680E4A0A405A601A6822F0847222F47E
:101DA80080321A601A6822F480221A605A6822F473
:101DB800FE025A604FF41F029A60FFF7DFFF044BE0
:101DC8004FF000629A6008BD001002400000FFF862
:101DD80000ED00E01F4B5B6803F00C03042B15D0EB
:101DE800082B17D01BB11C4B1C4A1A6002E01A4B77
:101DF8001A4A1A60174B5B68C3F30313184AD35C7B
:101E0800DAB215490B68D3400B607047124B134A7E
:101E18001A60EFE70F4A53685268C3F383430233EB
:101E280012F4803F05D10F4A02FB03F30A4A1360FC
:101E3800E0E7084A526812F4003F05D0094A02FB5D
:101E480003F3054A1360D5E7044A02FB03F3024A89
:101E58001360CFE7001002403000002000127A0023
:101E68002000002000093D0010B501211020FFF7D7
:101E780003F810494FF400540C800423CB700E482B
:101E8800FEF782FD0D210220FEF718FE0B480460C4
:101E9800002303710823437101248471FEF7A8FC11
:101EA8000748282303700F234370C470FEF760FAB5
:101EB80010BD00BF44090020001001404C0900205B
:101EC8004809002008B54FF40050FEF7FFFC00B9A0
:101ED80008BD044B01221A704FF40050FEF742FD72
:101EE800F6E700BF180900200A4B1B680A4AA2FB44
:101EF80003231B0A013BB3F1807F09D2074A5360D1
:101F0800074BF02183F82310002393600723136005
:101F1800704700BF300000201F85EB5110E000E043
:101F280000ED00E0034B1B681BB1024A1368013B3C
:101F3800136070472C09002008B5FEF7EDFD4FF43B
:101F48008030FEF709FEFFF71DF8012800D0FEE7F4
:101F58000020FEF7AFFE0020FEF7F0FE4FF4806091
:101F6800FEF7CCFE4FF4E0114FF48030FEF724FE6C
:101F78000120FEF76FFE3920FEF7CAFF0028FAD0CD
:101F88000220FEF779FEFEF78DFE0828FBD108BD7A
:101F980030B587B000258DF803500223ADF8003026
:101FA80069462148FEF7F0FC4FF40040FEF7E8FED2
:101FB80001214FF40070FEF75FFF01958DF808507E
:101FC80001248DF809404FF46023039304958DF89C
:101FD8001440164D0323224621462846FEF776FB79
:101FE80001A92846FEF710FA21462846FEF7A6FA68
:101FF8002846FEF7CDFA0D48FEF7E6FA0028FAD192
:102008000A48FEF7FFFA0948FEF718FB0028FAD13C
:10201800064C01212046FEF791FA01212046FEF7E1
:102028002BFB07B030BD00BF000801400024014071
:1020380030B585B04FF48060FEF760FE0121084698
:10204800FEF740FF1C238DF80C3000258DF80D504D
:1020580001248DF80E408DF80F4003A8FEF788F98B
:1020680041F61F43ADF8043040F2E733ADF80030D5
:10207800ADF80650ADF8025069464FF08040FEF7C3
:102088009BFF224621464FF08040FFF761F9214629
:102098004FF08040FFF7F8F805B030BD4FF08043AF
:1020A8001B8A13F0010F0AD04FF08042138A9BB2AB
:1020B80023F001039BB21382014B01221A7070476F
:1020C8001909002070B584B001210420FEF7FAFE3A
:1020D80001210920FEF7D0FE4FF44073ADF80C3013
:1020E80018238DF80F3003238DF80E3003A91748F5
:1020F800FEF74AFC41F61F43ADF804301323ADF850
:1021080000300026ADF80660ADF80260104C694654
:102118002046FEF751FF0F4960230B8001254D80B3
:102128000D4B1B88CB800E812046FEF7F5FF08215A
:102138002046FFF7DBF929462046FFF773F92946C1
:102148002046FFF7A1F804B070BD00BF000C0140A5
:1021580000080040340900201609002038B501F0B5
:10216800DFFF0546094B196802F02EF8084B19687D
:1021780001F022FF0446074B1968284601F01CFFAE
:102188000146204602F0D4F838BD00BF40000020C8
:1021980044000020480000202DE9F0418046134B00
:1021A800186801F0ABFB04460D46114B186801F0A6
:1021B800A5FB06460F46404601F0A0FB32463B46CB
:1021C80000F07CF902460B462046294601F0EEFB5A
:1021D80004460D46074B186801F090FB22462B4633
:1021E80001F02EFA01F092FEBDE8F08134000020E3
:1021F800380000203C00002000B583B001210420F5
:10220800FEF73AFE8023ADF8043002238DF806303D
:1022180010238DF8073001A90248FEF7B5FB03B07B
:102228005DF804FB0008014010B5FFF785FEFFF7D5
:102238005BFEFFF747FFFFF7ABFEFFF7F9FE00F085
:10224800A1F8FFF7D9FFFFF70FFE26E0002213469B
:10225800B3F57A7F05DA204931F813100A440133BF
:10226800F6E71E4C208880B2B2FBF0F001F054FF74
:1022780002F020F980B2FFF771FFFFF78DFF02F03F
:10228800F3F8174B18800023238017E0154B8022A2
:102298001A61134B1A88144B9A871448FEF78EFA62
:1022A8000E4A13889BB2591C89B211800A4921F839
:1022B800130013889BB2B3F57A7FC7D000F0E8F813
:1022C8000028E6D000F0F0F82028DFD01028E0D170
:1022D800044B80225A61DCE74401002014090020E5
:1022E80016090020000801400008004000240140B1
:1022F80038B50546142002F003F90446C5600023EA
:10230800836003606B1E4360680002F0F9F8206187
:10231800204638BD8268C068824214BF0020012070
:1023280070478068B0FA80F04009704738B50446B5
:102338000D46FFF7EFFF68B963685A1CE16892FB26
:10234800F1F301FB13236360226922F81350A36899
:102358000133A36038BD10B50446FFF7E2FF70B93A
:102368002269236832F813000133E16893FBF1F224
:1023780001FB12332360A368013BA36010BD00205A
:10238800FCE7000030B587B001210520FEF774FD99
:1023980001214FF48040FEF76FFD4FF48063ADF8E4
:1023A800043004238DF80730264C0DEB030120463A
:1023B800FEF7EAFA4FF40073ADF8043003238DF802
:1023C800063018238DF8073001A92046FEF7DCFAFD
:1023D8004FF4E13302930024ADF80C40ADF80E4001
:1023E800ADF81040ADF814400C23ADF81230164D7E
:1023F80002A92846FFF7ACF801212846FFF784F91F
:10240800224640F227712846FFF7B2F9012240F22E
:1024180025512846FFF7ACF925238DF800308DF8B3
:10242800024001248DF803406846FDF7A1FF2146CC
:102438002846FFF769F90A20FFF75AFF034B18608F
:1024480007B030BD000801400038014028090020CD
:1024580038B540F225510B48FFF726FA00B938BDC8
:10246800084D2846FFF7FEF9074C207040F2255129
:102478002846FFF797FA2178044B1868FFF756FFAC
:10248800EDE700BF0038014030090020280900208E
:1024980008B5044B1868FFF744FFB0FA80F040090C
:1024A80008BD00BF2809002008B5034B1868FFF7CE
:1024B80052FFC0B208BD00BF280900202DE9F04F27
:1024C8008DB006460F4614461D4600F089F9DFF820
:1024D8000093CDE9000199F90080B8F1FF3F36D0AB
:1024E80022462B462046294601F0FAFC834670BB5B
:1024F80032463B463046394601F0F2FC8246002817
:1025080040F0E280304639460022002301F0B6FC54
:1025180010B3002200232046294601F0AFFC834671
:10252800002849D0012200200021A44BCDF828A082
:10253800CDE90467CDE90645CDE90801CDE90223D7
:10254800B8F1000F6AD000239D4CCDE90034DDE9D5
:1025580000010DB0BDE8F08FDDE9000100F058FF83
:10256800804600286BD0DDE900014FF0000A4FF0EB
:10257800000B52465B4601F081FC0028E7D030464C
:10258800394600F045FF0028E1D02046294600F0F2
:102598003FFF0028DBD00420002199F90030874A4A
:1025A800022BCDE90467CDE90645CDE908AB0290D9
:1025B8000A9103927ED182E02046294600F028FF46
:1025C8000028C4D0002200232046294601F060FCE0
:1025D8000028BCD00121794A99F90030CDF828B0FB
:1025E800CDE90467CDE90645CDE90212002B40F09C
:1025F800888000230024CDE9083402A800F00EFFEB
:10260800002800F085800A9B1BB101F073FF0A9B2C
:102618000360DDE90834CDE9003498E702A800F04A
:10262800FDFE002879D00A9B002BF2D001F062FF52
:10263800DDE90834CDE900340A9B036087E73046BA
:10264800394600F0E5FE00288DD02046294600F0E6
:10265800DFFE002887D0DDE900231046194601F087
:102668003FFC99F900A0002840F08E800323DFF892
:102678004CC10A902946204602930022514BCDE9CD
:102688000645CDE90467CDF80CC001F08FF9044682
:102698000D46BAF1000F45D14FF0604ADFF834B16A
:1026A8000022002330463946CDE908AB01F0F0FBA3
:1026B800002848D102A800F0B1FE0028A3D101F0FB
:1026C80019FF222303609EE70022002320462946A3
:1026D80001F0D4FB00283FF43AAF01200022384B28
:1026E8003649B8F1020FCDF828B0CDE90467CDE935
:1026F80006450290CDE9082303918FD1CDE9002347
:1027080025E700203049022BCDE908017FF475AF99
:1027180001F0F0FE2123036075E701F0EBFE2123B1
:10272800036080E74FF0000BDFF8ACC00022002305
:1027380030463946CDE908BC01F0AAFBA0B9BAF188
:10274800020FBCD0B6E72046294600F06FFE2246AD
:102758002B4601F093FBA0B94FF060421B4B99F94F
:1027680000A0CDE90823EAE72046294600F05EFEEE
:1027780022462B4601F082FB18B90022124BCDE904
:10278800082399F900A0DAE701220C4BCDF828803C
:10279800CDE90467CDE90645CDE90223BAF1000F7A
:1027A8003FF427AF002200231046194601F028FA0B
:1027B800BAF1020FCDE90801AAD01EE78850000837
:1027C8000000F03F0000E03F0000F0FFFFFFEFC710
:1027D8004C000020FFFFEF470000F07F00000000E2
:1027E8002DE9F04F23F0004555EA020493B03DD09F
:1027F800DFF8B4E121F0004474450F4683462EDC2F
:102808001E46944639D0754529DCDFF89CE17545AC
:1028180022D0002F8A468146CDE9002336DB4FF0CF
:102828000008BCF1000F4CD15F4B9D4200F08E8038
:102838005E4B9D4200F09D80B6F1804F00F097847A
:102848005B4B9E423DD1002F3BDB4846514613B0BF
:10285800BDE8F04F00F016BDBCF1000FD9D004F16F
:10286800404404F5801454EA0B0309D100234F4C6B
:102878001846214613B0BDE8F08F08B9A542C4DD5B
:102888004C4813B0BDE8F04F00F0CABD4A4B9D421A
:1028980075DCA3F154739D420EDD2B15A3F2FF33B3
:1028A800142B40F36C84C3F134032CFA03F202FABC
:1028B80003F3634500F0AC844FF00008BCF1000F4F
:1028C800B6D04846514600F09FFDBBF1000F20D11D
:1028D80024B1364B27F040429A421AD1002E05DA2D
:1028E80002460B460020314901F08AF9002FC1DA6F
:1028F80004F1404404F5801454EA080340F061846C
:1029080002460B4600F09AFE02460B4601F078F9A3
:10291800B0E7FB0F013B079358EA030332D0274B7C
:102928009D424FDD03F104739D4240F3BD83244B68
:102938009C4240F34183002E40F3418318A3D3E91E
:1029480000231046194601F031F893E704F140439B
:1029580003F5801353EA0B0388D0194B9C4240F3CC
:102968005683002EC0F22B83DDE900341846214639
:1029780080E7002EC0F2F383484651467AE74FF0CD
:1029880002084EE74A4653464846514600F056FE6E
:1029980002460B4601F034F96CE700BFAFF3008044
:1029A8009C7500883CE4377E0000F07F0000F03F13
:1029B8000000E03F5C4F0008FFFF3F430000E0419C
:1029C800FFFFEF3FD04B3B40002B40F03783002206
:1029D800CE4B00F0EBFF6FF034060C46CC4A2315C3
:1029E800C4F31304A3F2FF3344F07F55944203EB7E
:1029F800060945F4401540F31383C64B9C4240F347
:102A0800E983002300240022CDE90C34CDE91034F9
:102A18000024C14B09F10109CDE90823A5F580156A
:102A2800DDE908AB294652465B46064600F006FE3D
:102A38005246CDE90A015B4630462946CDE908AB46
:102A480000F0FEFD02460B460020B34901F0D8F81D
:102A58000A4601461346CDE90E120246DDE90A018F
:102A680000F0A4FF0A46834694460023014600204E
:102A7800CDE902BC02936B1043F0005303F5002329
:102A8800CDE90412DDE902AB19192F4604460D46BB
:102A980002460B465046594600F088FF02460B4650
:102AA800DDE90A0100F0CAFDDDE90823CDE90A01E4
:102AB8002046294600F0C2FD02460B4630463946FC
:102AC80000F0BCFD52465B4600F070FF02460B4624
:102AD800DDE90A0100F0B2FDDDE90E2300F066FF32
:102AE800DDE90445CDE9080122462B462046294662
:102AF80000F05CFF72A3D3E9002304460D4600F002
:102B080055FF71A3D3E9002300F09AFD22462B4616
:102B180000F04CFF6EA3D3E9002300F091FD22469C
:102B28002B4600F043FF6CA3D3E9002300F088FD97
:102B380022462B4600F03AFF69A3D3E9002300F0B0
:102B48007FFD22462B4600F031FF67A3D3E900231F
:102B580000F076FD224606460F462B4620462946BB
:102B680000F024FF02460B463046394600F01EFFAF
:102B780004460D46DDE9040152465B4600F060FD5F
:102B8800DDE9082300F012FF22462B4600F058FD2D
:102B9800524606460F465B465046594600F006FF29
:102BA80000225E4BCDE90A0100F04AFD32463B4661
:102BB80000F046FD02980D4604462B462246504634
:102BC800594600F0F3FE002282468B46534B2046BE
:102BD800294600F033FDDDE90A2300F02FFD024607
:102BE8000B463046394600F029FDDDE9042300F0A4
:102BF800DDFE224606460F46DDE908012B4600F0B9
:102C0800D5FE02460B463046394600F019FD064609
:102C18000F4602460B465046594600F011FD34A3B4
:102C2800D3E9002302980D46044600F0BFFE524641
:102C3800CDE904015B462046294600F0FFFC024628
:102C48000B463046394600F0F9FC2BA3D3E90023A4
:102C580000F0ACFE2AA3D3E9002306460F4620461F
:102C6800294600F0A3FE02460B463046394600F0DE
:102C7800E7FCDDE9102300F0E3FC044648460D4676
:102C880000F02AFE06460F46DDE9040122462B46DF
:102C980000F0D6FCDDE90C2300F0D2FC32463B46BE
:102CA80000F0CEFC029832463B4682468B4600F046
:102CB800C5FCDDE90C2300F0C1FCDDE904232FE0AD
:102CC800EF4E454A287ECA3F65DBC9934A86CD3F09
:102CD80001411DA96074D13F4D268F515555D53FEF
:102CE800FFAB6FDBB66DDB3F033333333333E33F87
:102CF800000000E009C7EE3FFD033ADC09C7EE3FDC
:102D0800F5015B14E02F3EBE0000F07F0000404359
:102D18008E98030079B60B000000F03F00000840D1
:102D280000F08CFC02460B462046294600F086FC43
:102D3800079A08F1FF3313434FF000064FF00003E2
:102D48000CBFD34CD34CCDE90201CDE90434DDE905
:102D580000231046194632461F4600F06FFC5B46BA
:102D6800524600F023FEDDE9002380468946DDE96E
:102D7800020100F01BFE02460B464046494600F0A1
:102D88005FFC3246CDE900013B465946504600F00B
:102D98000DFE0B46024680468946DDE9000100F03B
:102DA8004FFCBD4B044699420D468B4640F30C81BF
:102DB80001F13F4303F5E003034340F0F481A0A38E
:102DC800D3E90023DDE9000100F03AFC424606465B
:102DD8000F464B462046294600F030FC02460B467B
:102DE8003046394601F072F8002840F0DC81CBF318
:102DF8000A534FF480120020A3F2FE3342FA03F381
:102E08005B44C3F30A52A54DA2F2FF321541C3F346
:102E1800130423EA0501C2F1140A44F48014BBF137
:102E2800000F02460B4644FA0AFA40464946B8BF24
:102E3800CAF1000A00F002FC80468946DDE900017B
:102E480042464B4600F0FCFB0D464FEA0A5B002465
:102E58007DA3D3E900232046294600F0A7FD42467A
:102E680006460F464B462046294600F0E7FB024639
:102E78000B46DDE9000100F0E1FB75A3D3E900236F
:102E880000F094FD74A3D3E90023804689462046C8
:102E9800294600F08BFD02460B464046494600F0A5
:102EA800CFFB8046894602460B463046394600F03D
:102EB800C7FB32463B4604460D4600F0BFFB0246C0
:102EC8000B464046494600F0B9FB224680468946F3
:102ED8002B462046294600F069FD61A3D3E900236B
:102EE80006460F4600F062FD5FA3D3E9002300F019
:102EF800A5FB32463B4600F059FD5DA3D3E900230C
:102F080000F09EFB32463B4600F050FD5AA3D3E941
:102F1800002300F093FB32463B4600F047FD58A3E0
:102F2800D3E9002300F08CFB32463B4600F03EFD1F
:102F380002460B462046294600F080FB06460F460F
:102F480002460B462046294600F030FD0022CDE916
:102F580000014FF080433046394600F06FFB0246CF
:102F68000B46DDE9000100F04BFE424606460F46DF
:102F78004B462046294600F019FD42464B4600F0D4
:102F88005FFB02460B463046394600F057FB2246A7
:102F98002B4600F053FB02460B4600203D4900F04B
:102FA8004DFB8B44BBF5801FC0F22E815946DDE9ED
:102FB800042300F0FBFC5DE4002EFFF6BFAC002309
:102FC80000241846214655E4DFF8D8C021F0004314
:102FD800634540F3E280324B0B4403430AD1424637
:102FE8004B4600F02BFBDDE9002300F065FF0028CD
:102FF8003FF4FDAE24A3D3E90023DDE9040100F08A
:10300800D5FC21A3D3E9002300F0D0FC32E4002E44
:10301800D5DADDE90034184604F10043194629E4FD
:10302800002300241A462346CDE90C23CDE91023BA
:103038000022184B0024CDE90823F1E40026CDE452
:10304800FE822B654715973C00000000432EE63FA3
:10305800EF39FAFE422EE63F396CA80C615C20BEBF
:10306800D0A4BE726937663EF16BD2C541BDBB3E86
:103078002CDE25AF6A56113F93BDBE166CC1663F64
:103088003E5555555555C53F59F3F8C21F6EA50114
:103098000000F0BF0000F03FFFFF8F40FFFF0F0070
:1030A80000346F3FFFCB9040714B9C4284DD714BE5
:1030B8009C423FF740AC00226E4B00F0BFFA5EA383
:1030C800D3E9002304460D4600F070FC5CA3D3E965
:1030D800002306460F462046294600F067FC0022DA
:1030E80082468B46644B2046294600F05FFC024628
:1030F8000B4655A1D1E9000100F0A0FA22462B4663
:1031080000F054FC02460B4600205C4900F096FA99
:103118002246CDE902012B462046294600F046FC0E
:1031280002460B46DDE9020100F040FC48A3D3E962
:10313800002300F03BFC02460B465046594600F07F
:103148007DFA02460B4604460D463046394600F0E5
:1031580077FA00208B46824632463B46E0E54A46EF
:1031680053460020434900F04BFDFFF783BB4A4616
:1031780048465346514600F019FCFFF77BBBBCF1AB
:10318800000F38D1C3F1140345FA03F202FA03F32E
:10319800AB4247D0E046FFF74BBB384A934247DC87
:1031A800B346B24653E62CA3D3E90023DDE9040174
:1031B80000F0FCFB28A3D3E9002300F0F7FBFFF79E
:1031C80059BBB8F1010F7FF455AB01F10043194623
:1031D800FFF750BB22A3D3E90023CDE90C2322A398
:1031E800D3E90023CDE910230022254B4FF4802496
:1031F800CDE9082314E400F007F9BBF1000F7FF4D0
:10320800C1ABD846FFF764BB524600F099F9CEE649
:1032180002F00102C2F10208BCF1000F3FF408AB52
:10322800FFF74FBB02F00102C2F10208FFF700BB33
:103238001B15DEE5AFF30080000000604715F73F7F
:1032480044DF5DF80BAE543E555555555555D53FA1
:10325800FE822B654715F73F9C7500883CE4377E56
:103268000000004003B8E23F06D0CF43EBFD4C3EE0
:10327800FEFFEF3F0000F03F0000D03F0000E03FBE
:103288000000F83F5F4A2DE9F0418A430D460646A3
:1032980000F09A8000290B46044653DD5FEA215C62
:1032A80000F0A780C3F31303ACF2FF3CE20F43F432
:1032B80080131CF0010F02EB43034FEA440203D0D2
:1032C800D20F02EB4303A2000027162138464FF421
:1032D80000144FEA6C0C05199D4202DC5B1B28198F
:1032E80027445B00013903EBD2734FEA54044FEAD9
:1032F8004202F0D10D468E4620264FF0004109E0EB
:1033080042D0D40F013E4FEA510104EB43034FEA88
:10331800420242D0834201EB0E04F1DD002C04EBA3
:10332800010E09DB80461B1A944288BF03F1FF3364
:103338004046121B0D44E4E7BEF1000FF2DB00F13A
:103348000108F0E721F00042024334D0002947D1B8
:10335800E00A153B640502460028F9D0C5024BD4A3
:10336800002100E029465200D00201F10105F9D5FB
:1033780010462246AC40C5F1200522FA05F5A3EB1C
:10338800010C45EA00038DE79442BAD8002C04EBFF
:10339800010ED1DB98460023CAE713430ED16E080D
:1033A8007B1003F17F5303F50013FA0748BF46F07B
:1033B800004603EB0C513046BDE8F081691C16BF8E
:1033C800691C01374E08EBE702460B4600F0EEFA9F
:1033D80032462B4600F034F906463046BDE8F08107
:1033E800024600F02BF902460B4600F009FC06469F
:1033F800E1E70A466346B3E7224620254FF0FF314E
:10340800BBE700BF0000F07F21F00043194670477A
:1034180041F0004101F58010C00F7047002070474F
:1034280000200149704700BF0000F87FF0B5C1F3E4
:103438000A5CACF2FF36132E83B002460B460C46EC
:103448004FEAD175074656DC002E2BDB3A4931414D
:1034580003EA0100104353D049080B4052EA03071E
:103468000BD04FF48023132E0CBF4FF000470027DA
:1034780024EA010143FA06F40C433049234601EBE0
:10348800C505D5E900453A462046294600F0D8F852
:10349800CDE90001DDE9000122462B4600F0CEF817
:1034A80003B0F0BD21F0004101431946F8D0C3F341
:1034B80013031F437B423B43640C1B0B640403F45C
:1034C800002343EA04010B461C4901EBC501D1E97D
:1034D80000673046394600F0B3F8CDE90001DDE970
:1034E800000132463B4600F0A9F821F0004444EAC6
:1034F800C57103B0F0BD332E06DDB6F5806F17D069
:103508001046194603B0F0BD4FF0FF31ACF2134C32
:1035180021FA0CF10842F3D049080842ADD04FF027
:10352800804320EA010143FA0CFC41EA0C07A4E7B6
:1035380000F086F8B4E700BFFFFF0F0090500008C6
:10354800F8B5C1F30A5304460D460E46174673BB39
:10355800034621F00046334328D0314B002200F0C7
:1035680025FA304B04469F420D461ADB0E46C1F33E
:103578000A53363B40F2FE723B44934220DC002B58
:103588003DDC13F1350F2CDA4CF250339F4217DC37
:1035980005F0004343F0D27141F4B731224841F0BD
:1035A8001F011BA3D3E9002300F000FAF8BD40F285
:1035B800FF729342DED102460B4600F041F8F8BD97
:1035C80005F0004444F0FC4141F45F1141F410510E
:1035D80011A3D3E90023154841F03C0100F0E6F9B6
:1035E800F8BD26F0FF4626F4E006363346EA0355D2
:1035F8002046294600220E4B00F0D8F9F8BD26F0E7
:10360800FF4626F4E00646EA035520462946F8BD5B
:1036180059F3F8C21F6EA5019C7500883CE4377EFB
:1036280000005043B03CFFFF59F3F8C29C75008876
:103638000000903C81F0004102E000BF83F00043AD
:1036480030B54FEA41044FEA430594EA050F08BF35
:1036580090EA020F1FBF54EA000C55EA020C7FEAF9
:10366800645C7FEA655C00F0E2804FEA5454D4EB76
:103678005555B8BF6D420CDD2C4480EA020281EA40
:10368800030382EA000083EA010180EA020281EA78
:103698000303362D88BF30BD11F0004F4FEA0131CA
:1036A8004FF4801C4CEA113102D0404261EB4101D9
:1036B80013F0004F4FEA03334CEA133302D052425F
:1036C80063EB430394EA050F00F0A780A4F101041B
:1036D800D5F1200E0DDB02FA0EFC22FA05F2801855
:1036E80041F1000103FA0EF2801843FA05F359413B
:1036F8000EE0A5F120050EF1200E012A03FA0EFCBA
:1037080028BF4CF0020C43FA05F3C01851EBE371E3
:1037180001F0004507D54FF0000EDCF1000C7EEB00
:1037280000006EEB0101B1F5801F1BD3B1F5001F3E
:103738000CD349085FEA30004FEA3C0C04F101045D
:103748004FEA445212F5800F80F09A80BCF1004F86
:1037580008BF5FEA500C50F1000041EB045141EA08
:10376800050130BD5FEA4C0C404141EB010111F409
:10377800801FA4F10104E9D191F0000F04BF0146B4
:103788000020B1FA81F308BF2033A3F10B03B3F192
:1037980020020CDA0C3208DD02F1140CC2F10C0222
:1037A80001FA0CF021FA02F10CE002F11402D8BF80
:1037B800C2F1200C01FA02F120FA0CFCDCBF41EA4C
:1037C8000C019040E41AA2BF01EB0451294330BD1B
:1037D8006FEA04041F3C1CDA0C340EDC04F11404F8
:1037E800C4F1200220FA04F001FA02F340EA0300CF
:1037F80021FA04F345EA030130BDC4F10C04C4F115
:10380800200220FA02F001FA04F340EA03002946F4
:1038180030BD21FA04F0294630BD94F0000F83F43E
:10382800801306BF81F480110134013D4EE77FEA21
:10383800645C18BF7FEA655C29D094EA050F08BF6D
:1038480090EA020F05D054EA000C04BF194610464E
:1038580030BD91EA030F1EBF0021002030BD5FEA92
:10386800545C05D14000494128BF41F0004130BDBA
:1038780014F580043CBF01F5801130BD01F000450E
:1038880045F0FE4141F470014FF0000030BD7FEA81
:10389800645C1ABF194610467FEA655C1CBF0B467C
:1038A800024650EA013406BF52EA033591EA030F93
:1038B80041F4002130BD00BF90F0000F04BF00218B
:1038C800704730B54FF4806404F132044FF00005BE
:1038D8004FF0000150E700BF90F0000F04BF002137
:1038E800704730B54FF4806404F1320410F000459D
:1038F80048BF40424FF000013EE700BF42004FEA98
:10390800E2014FEA31014FEA02701FBF12F07F4314
:1039180093F07F4F81F06051704732F07F4208BFCB
:10392800704793F07F4F04BF41F40021704730B5D2
:103938004FF4607401F0004521F000411CE700BF1E
:1039480050EA010208BF704730B54FF000050AE0A1
:1039580050EA010208BF704730B511F0004502D5A2
:10396800404261EB41014FF4806404F132045FEAA4
:10397800915C3FF4D8AE4FF003025FEADC0C18BF4D
:1039880003325FEADC0C18BF033202EBDC02C2F13F
:10399800200300FA03FC20FA02F001FA03FE40EAD1
:1039A8000E0021FA02F11444BDE600BF70B54FF0D5
:1039B800FF0C4CF4E06C1CEA11541DBF1CEA1355B3
:1039C80094EA0C0F95EA0C0F00F0DEF82C4481EA1B
:1039D800030621EA4C5123EA4C5350EA013518BF3B
:1039E80052EA033541F4801143F4801338D0A0FB28
:1039F80002CE4FF00005E1FB02E506F00042E0FBD5
:103A080003E54FF00006E1FB03569CF0000F18BFDA
:103A18004EF0010EA4F1FF04B6F5007F64F5407482
:103A280004D25FEA4E0E6D4146EB060642EAC62115
:103A380041EA55514FEAC52040EA5E504FEACE2E82
:103A4800B4F1FD0C88BFBCF5E06F1ED8BEF1004F85
:103A580008BF5FEA500E50F1000041EB045170BD01
:103A680006F0004646EA010140EA020081EA030145
:103A7800B4EB5C04C2BFD4EB0C0541EA045170BD41
:103A880041F480114FF0000E013C00F3AB8014F1BB
:103A9800360FDEBF002001F0004170BDC4F1000404
:103AA800203C35DA0C341BDC04F11404C4F1200585
:103AB80000FA05F320FA04F001FA05F240EA0200E0
:103AC80001F0004221F0004110EBD37021FA04F616
:103AD80042EB06015EEA430E08BF20EAD37070BDD0
:103AE800C4F10C04C4F1200500FA04F320FA05F02F
:103AF80001FA04F240EA020001F0004110EBD37031
:103B080041F100015EEA430E08BF20EAD37070BDA0
:103B1800C4F1200500FA05F24EEA020E20FA04F379
:103B280001FA05F243EA020321FA04F001F0004128
:103B380021FA04F220EA020000EBD3705EEA430E99
:103B480008BF20EAD37070BD94F0000F0FD101F0C8
:103B58000046400041EB010111F4801F08BF013C01
:103B6800F7D041EA060195F0000F18BF704703F03F
:103B78000046520043EB030313F4801F08BF013DC6
:103B8800F7D043EA0603704794EA0C0F0CEA135582
:103B980018BF95EA0C0F0CD050EA410618BF52EA3C
:103BA8004306D1D181EA030101F000414FF0000042
:103BB80070BD50EA410606BF1046194652EA430650
:103BC80019D094EA0C0F02D150EA013613D195EAC4
:103BD8000C0F05D152EA03361CBF104619460AD10C
:103BE80081EA030101F0004141F0FE4141F4700116
:103BF8004FF0000070BD41F0FE4141F4780170BD06
:103C080070B54FF0FF0C4CF4E06C1CEA11541DBF6A
:103C18001CEA135594EA0C0F95EA0C0F00F0A7F86C
:103C2800A4EB050481EA030E52EA03354FEA013199
:103C380000F088804FEA03334FF0805545EA1313AC
:103C480043EA12634FEA022245EA111545EA106574
:103C58004FEA00260EF000419D4208BF964244F10B
:103C6800FD0404F5407402D25B084FEA3202B61A2A
:103C780065EB03055B084FEA32024FF480104FF4FE
:103C8800002CB6EB020E75EB030E22BFB61A754672
:103C980040EA0C005B084FEA3202B6EB020E75EB05
:103CA800030E22BFB61A754640EA5C005B084FEA6D
:103CB8003202B6EB020E75EB030E22BFB61A75463A
:103CC80040EA9C005B084FEA3202B6EB020E75EB45
:103CD800030E22BFB61A754640EADC0055EA060E06
:103CE80018D04FEA051545EA16754FEA06164FEA49
:103CF800C30343EA52734FEAC2025FEA1C1CC0D1F5
:103D080011F4801F0BD141EA00014FF000004FF081
:103D1800004CB6E711F4801F04BF01430020B4F142
:103D2800FD0C88BFBCF5E06F3FF6AFAEB5EB030CFA
:103D380004BFB6EB020C5FEA500C50F1000041EBF7
:103D4800045170BD0EF0004E4EEA113114EB5C04C4
:103D5800C2BFD4EB0C0541EA045170BD41F4801197
:103D68004FF0000E013C90E645EA060E8DE60CEA9F
:103D7800135594EA0C0F08BF95EA0C0F3FF43BAFBC
:103D880094EA0C0F0AD150EA01347FF434AF95EA73
:103D98000C0F7FF425AF104619462CE795EA0C0F57
:103DA80006D152EA03353FF4FDAE1046194622E724
:103DB80050EA410618BF52EA43067FF4C5AE50EAFE
:103DC80041047FF40DAF52EA43057FF4EBAE12E7EE
:103DD8004FF0FF3C06E000BF4FF0010C02E000BFCF
:103DE8004FF0010C4DF804CD4FEA410C7FEA6C5CB2
:103DF8004FEA430C18BF7FEA6C5C1BD001B050EA55
:103E0800410C0CBF52EA430C91EA030F02BF90EA3F
:103E1800020F0020704710F1000F91EA030F58BFFE
:103E2800994208BF90422CBFD8176FEAE37040F060
:103E3800010070474FEA410C7FEA6C5C02D150EAFE
:103E4800013C07D14FEA430C7FEA6C5CD6D152EAB9
:103E5800033CD3D05DF8040B704700BF844610467E
:103E680062468C461946634600E000BF01B5FFF77D
:103E7800B7FF002848BF10F1000F01BD4DF808ED4D
:103E8800FFF7F4FF0CBF012000205DF808FB00BF1E
:103E98004DF808EDFFF7EAFF34BF012000205DF878
:103EA80008FB00BF4DF808EDFFF7E0FF94BF0120C5
:103EB80000205DF808FB00BF4DF808EDFFF7CEFFC6
:103EC80094BF012000205DF808FB00BF4DF808ED05
:103ED800FFF7C4FF34BF012000205DF808FB00BFD6
:103EE8004FEA410C7FEA6C5C02D150EA013C0AD1EE
:103EF8004FEA430C7FEA6C5C02D152EA033C02D1E0
:103F08004FF0000070474FF0010070474FEA410240
:103F1800B2F1E04324BFB3F5001CDCF1FE5C0DD91F
:103F280001F0004C4FEAC0024CEA5070B2F1004F69
:103F380040EB830008BF20F00100704711F0804F6C
:103F480021D113F13872BCBF01F00040704741F431
:103F580080114FEA5252C2F11802C2F1200C10FA35
:103F68000CF320FA02F018BF40F001004FEAC12319
:103F78004FEAD32303FA0CFC40EA0C0023FA02F3BD
:103F88004FEA4303CCE77FEA625307D150EA013393
:103F98001EBF4FF0FE4040F44000704701F0004063
:103FA80040F0FE4040F40000704700BF80F0004041
:103FB80002E000BF81F0004142001FBF5FEA4103F9
:103FC80092EA030F7FEA226C7FEA236C6AD04FEAF9
:103FD8001262D2EB1363C1BFD2184140484041403E
:103FE800B8BF5B42192B88BF704710F0004F40F4F0
:103FF800000020F07F4018BF404211F0004F41F40C
:10400800000121F07F4118BF494292EA030F3FD0D7
:10401800A2F1010241FA03FC10EB0C00C3F12003EA
:1040280001FA03F100F0004302D5494260EB400079
:10403800B0F5000F13D3B0F1807F06D340084FEAE4
:10404800310102F10102FE2A51D2B1F1004F40EBD9
:10405800C25008BF20F0010040EA03007047490041
:1040680040EB000010F4000FA2F10102EDD1B0FA0C
:1040780080FCACF1080CB2EB0C0200FA0CF0AABF01
:1040880000EBC25052421843BCBFD040184370479F
:1040980092F0000F81F4000106BF80F400000132A5
:1040A800013BB5E74FEA41037FEA226C18BF7FEA7C
:1040B800236C21D092EA030F04D092F0000F08BFBE
:1040C8000846704790EA010F1CBF0020704712F0A5
:1040D8007F4F04D1400028BF40F00040704712F1E4
:1040E80000723CBF00F50000704700F0004343F049
:1040F800FE4040F4000070477FEA226216BF08467F
:104108007FEA23630146420206BF5FEA412390EA41
:10411800010F40F4800070474FF0000304E000BF37
:1041280010F0004348BF40425FEA000C08BF7047E8
:1041380043F0964301464FF000001CE050EA0102AC
:1041480008BF70474FF000030AE000BF50EA0102C1
:1041580008BF704711F0004302D5404261EB4101AE
:104168005FEA010C02BF84460146002043F0B643D3
:1041780008BFA3F18053A3F50003BCFA8CF2083AF8
:10418800A3EBC25310DB01FA02FC634400FA02FC01
:10419800C2F12002BCF1004F20FA02F243EB020008
:1041A80008BF20F00100704702F1200201FA02FC6A
:1041B800C2F1200250EA4C0021FA02F243EB02005D
:1041C80008BF20EADC7070474FF0FF0C1CEAD052A1
:1041D8001EBF1CEAD15392EA0C0F93EA0C0F6FD062
:1041E8001A4480EA010C400218BF5FEA41211ED040
:1041F8004FF0006343EA501043EA5111A0FB01312C
:104208000CF00040B1F5000F3EBF490041EAD37100
:104218005B0040EA010062F17F02FD2A1DD8B3F17C
:10422800004F40EBC25008BF20F00100704790F0EB
:10423800000F0CF0004C08BF49024CEA502040EA3D
:1042480051207F3AC2BFD2F1FF0340EAC250704703
:1042580040F400004FF00003013A5DDC12F1190F41
:10426800DCBF00F000407047C2F10002410021FAB3
:1042780002F1C2F1200200FA02FC5FEA310040F1CB
:10428800000053EA4C0308BF20EADC70704792F044
:10429800000F00F0004C02BF400010F4000F013A7C
:1042A800F9D040EA0C0093F0000F01F0004C02BF77
:1042B800490011F4000F013BF9D041EA0C018FE7E6
:1042C8000CEAD15392EA0C0F18BF93EA0C0F0AD0EC
:1042D80030F0004C18BF31F0004CD8D180EA010012
:1042E80000F00040704790F0000F17BF90F0004FAB
:1042F800084691F0000F91F0004F14D092EA0C0F8D
:1043080001D142020FD193EA0C0F03D14B0218BF1F
:10431800084608D180EA010000F0004040F0FE4065
:1043280040F40000704740F0FE4040F44000704701
:104338004FF0FF0C1CEAD0521EBF1CEAD15392EA80
:104348000C0F93EA0C0F69D0A2EB030280EA010C70
:1043580049024FEA402037D04FF0805343EA111109
:1043680043EA10130CF000408B4238BF5B0042F167
:104378007D024FF4000C8B4224BF5B1A40EA0C000C
:10438800B3EB510F24BFA3EB510340EA5C00B3EB3E
:10439800910F24BFA3EB910340EA9C00B3EBD10F2C
:1043A80024BFA3EBD10340EADC001B0118BF5FEA7E
:1043B8001C1CE0D1FD2A3FF650AF8B4240EBC250A7
:1043C80008BF20F0010070470CF0004C4CEA502068
:1043D8007F32C2BFD2F1FF0340EAC250704740F4B7
:1043E80000004FF00003013A37E792F0000F00F0A9
:1043F800004C02BF400010F4000F013AF9D040EA27
:104408000C0093F0000F01F0004C02BF490011F4BA
:10441800000F013BF9D041EA0C0195E70CEAD153B2
:1044280092EA0C0F08D142027FF47DAF93EA0C0F99
:104438007FF470AF084676E793EA0C0F04D14B027D
:104448003FF44CAF08466EE730F0004C18BF31F02F
:10445800004CCAD130F000427FF45CAF31F0004329
:104468007FF43CAF5FE700BF4FEA4002B2F1FE4F76
:104478000FD34FF09E03B3EB12620DD94FEA00231E
:1044880043F0004310F0004F23FA02F018BF4042F7
:1044980070474FF00000704712F1610F01D14202DE
:1044A80005D110F0004008BF6FF0004070474FF092
:1044B8000000704742000ED2B2F1FE4F0BD34FF00E
:1044C8009E03B3EB126209D44FEA002343F0004382
:1044D80023FA02F070474FF00000704712F1610FA5
:1044E80001D1420202D14FF0FF3070474FF0000077
:1044F800704700BF014B1868704700BF500000208C
:10450800024B0146186800F04FB800BF5000002069
:1045180038B50546002943D051F8043C0C1F002B40
:10452800B8BFE41800F0ECF81E4A1368104633B917
:10453800636014602846BDE8384000F0E7B8A3423D
:104548000BD921686218934201BF1A685B68521838
:10455800226063600460EDE713465A680AB1A2421C
:10456800FAD919685818A0420BD120680144581884
:1045780082421960DED110685268014419605A609D
:10458800D8E702D90C232B60D4E7206821188A4287
:1045980001BF116852680918216062605C60C9E750
:1045A80038BD00BF1C090020F8B5CD1C25F0030557
:1045B80008350C2D38BF0C25002D064601DBA94215
:1045C80003D90C2333600020F8BD00F099F8214985
:1045D8000A6814469CB9204F3B6823B921463046E7
:1045E80000F03CF838602946304600F037F8431CA4
:1045F80023D10C233046336000F088F8E3E72368C2
:104608005B1B17D40B2B03D923601C44256004E0E3
:104618006368A2420CBF0B605360304600F076F826
:1046280004F10B00231D20F00700C21ACCD01B1A7E
:10463800A350C9E722466468CCE7C41C24F00304ED
:10464800A042E3D0211A304600F008F80130DDD14D
:10465800CFE700BF1C0900202009002038B500233F
:10466800054C054608462360FDF7FAF9431C02D1BC
:10467800236803B12B6038BD24090020034613F8D2
:10468800012B002AFBD1181A0138704730B5141EC7
:1046980005469BB0184605DA8B234FF0FF302B6098
:1046A8001BB030BD4FF40273ADF80C300CBF23467D
:1046B80004F1FF33029305934FF6FF7300910491C1
:1046C800ADF80E3002461E9B6946284600F080F879
:1046D800431CBCBF8B232B60002CE1D00022009B25
:1046E8001A70DDE707B5009313460A4601460348EA
:1046F8000068FFF7CBFF03B05DF804FB5000002013
:10470800014800F0E9BA00BF58090020014800F04C
:10471800E4BA00BF580900202DE9F0478E688246A8
:104728009E420C469146984638D8B1F80CC01CF405
:10473800906F31D062692568096902EB42026F1AED
:1047480002EBD272013355103B449D4238BF1D46DF
:104758001CF4806F30D02946FFF726FF064650B973
:104768000C234FF0FF30CAF80030A38943F0400310
:10477800A381BDE8F0873A46216900F0BDFAA38914
:1047880023F4906343F08003A38126613E442660AE
:1047980046466561ED1BA560464500D9464632464A
:1047A8004946206800F0B6FAA36800209B1BA36066
:1047B80023681E442660DCE72A4600F0C5FA064650
:1047C8000028E2D121695046FFF7A2FEC8E70000A1
:1047D8002DE9F04F1E468B899DB01B0607460D46F6
:1047E80014460ED50B6963B94021FFF7DDFE28603A
:1047F800286120B90C233B604FF0FF30C9E040230B
:104808006B610023099320238DF8293030234FF062
:10481800010ADFF898918DF82A30039623461E4640
:1048280013F8012B0AB1252AF9D1B6EB040B0BD0EA
:104838005B46224629463846FFF76EFF013000F0F6
:10484800A380099B5B4409933378002B00F09C807C
:1048580000234FF0FF32CDE9052301360493079377
:104868008DF853301A933446052214F8011B4F482B
:1048780000F034FA049BC0B9D90644BF20228DF851
:1048880053201A0744BF2B228DF8532032782A2A46
:1048980013D0344600200A26079A214611F8013B16
:1048A800303B092B4BD970B914E0A0EB09000AFA88
:1048B80000F0184304902646D5E7039A111D1268A4
:1048C8000391002A01DB079204E0524243F00203FD
:1048D8000792049323782E2B0CD163782A2B33D19B
:1048E800039B02341A1D1B680392002BB8BF4FF0BC
:1048F800FF3305932E4E03222178304600F0EEF95F
:1049080038B14023801B03FA00F0049B01340343B1
:10491800049314F8011B062226488DF8281000F08D
:10492800DDF9002838D0244B13BB039B073323F051
:10493800070308330393099B434409936EE706FB77
:10494800023201200C46A8E700230A261946013442
:104958000593204610F8012B303A092A03D9002B79
:10496800C8D00591C6E706FB012101230446F0E7FC
:1049780003AB00932A46114B04A93846AFF30080D5
:10498800B0F1FF3F8046D6D1AB895B063FF534AF27
:1049980009981DB0BDE8F08F03AB00932A46074B7A
:1049A80004A9384600F082F8EAE700BFA0500008E2
:1049B800A6500008AA50000800000000214700087F
:1049C8002DE9F04791461F468A680B6906469342CF
:1049D800B8BF1346C9F8003091F843200C46DDF8FB
:1049E800208012B10133C9F800302368990642BF0C
:1049F800D9F800300233C9F80030256815F00605EB
:104A080007D104F1190AE368D9F800209B1AAB42D0
:104A180029DC94F843302268003318BF012392063A
:104A28002ED404F1430239463046C047013021D024
:104A38002368E56803F00603042B18BF0025D9F89E
:104A480000204FF0000908BFAD1AA368226908BF0B
:104A580025EAE5759342C4BF9B1AED181A344D45F3
:104A68001AD1002008E00123524639463046C04793
:104A7800013003D14FF0FF30BDE8F0870135C2E7C0
:104A88003020E11881F843005A1C94F8451022445C
:104A9800023382F84310C4E70123224639463046E0
:104AA800C0470130E6D009F10109D8E72DE9F04304
:104AB80006460C4601F14300097E85B06E299846EA
:104AC80017460C9B00F0BB8024D8632939D00AD83C
:104AD800002900F0C480582900F0928004F14205B2
:104AE80084F8421035E0642901D06929F6D1256897
:104AF8001A6815F0800F02F104012CD012681960B1
:104B0800002A03DA2D23524284F84330DFF8C0C16B
:104B18000A233FE0732900F0A68008D86F2921D026
:104B28007029DBD1226842F02002226003E0752957
:104B380018D07829D2D17822DFF898C184F8452096
:104B480062E01A6804F14205111D1960136884F8BF
:104B58004230012394E0126815F0400F196018BF25
:104B680012B2CDE7D4F800C01A681CF0800F02F129
:104B780004051D6001D0126803E01CF0400FFAD054
:104B880012886F290CBF08230A23DFF844C10021CB
:104B980084F843106568002DA8BF2168A560A4BFEC
:104BA80021F0040121600AB9002D46D00546B2FB68
:104BB800F3F103FB112E1CF80EE0934205F801ED0A
:104BC80039D9082B0BD12368DA0708D5236962681D
:104BD8009A42DEBF302305F8013C05F1FF35401B42
:104BE8002061CDF800803B4603AA21463046FFF7F6
:104BF800E7FE013049D14FF0FF3005B0BDE8F08342
:104C0800DFF8CCC084F845101D68216855F8042BDE
:104C18001D600D060BD5CD0744BF41F02001216072
:104C28001AB9236823F0200323601023AFE74B064B
:104C380048BF92B2EFE70A46B9E70546C1E71A68E6
:104C4800D4F800C0151D61691CF0800F1D60136841
:104C580001D0196003E01CF0400FFAD0198000233E
:104C680005462361BDE71A68111D19601568002102
:104C78006268284600F032F808B1401B606063683B
:104C88002361002384F84330ABE723692A46394679
:104C98003046C0470130AED023689B0713D4E06884
:104CA800039B9842B8BF1846A7E701234A463946EE
:104CB8003046C04701309ED00135E368039A9B1AFD
:104CC800AB42F2DCEBE7002504F11909F5E700BF78
:104CD800B1500008C25000087047704710B5C9B2FB
:104CE80002449042034601D1002303E01C780130BE
:104CF8008C42F6D1184610BD0A44914200F1FF33A8
:104D080000D1704710B511F8014B914203F8014FDB
:104D1800F9D110BD884210B501EB020302D98342D4
:104D28001C4607D8421E994208D011F8014B02F8D8
:104D3800014FF8E783189A1A9A4200D110BD14F867
:104D4800011D03F8011DF7E7F8B5074614460E469E
:104D580021B91146BDE8F840FFF726BC22B9FFF794
:104D6800D7FB25462846F8BD00F014F8A0420FD21C
:104D780021463846FFF718FC05460028F2D0314690
:104D88002246FFF7B9FF31463846FFF7C1FBE9E78E
:104D98003546E7E751F8043C181F002BBCBF0B58F9
:104DA800C01870472E2E2F73797374656D2F737228
:104DB800632F73746D333266312D7374647065724A
:104DC8006970682F6D6973632E6300002E2E2F7330
:104DD800797374656D2F7372632F73746D333266D4
:104DE800312D7374647065726970682F73746D33D4
:104DF80032663130785F6164632E63002E2E2F7324
:104E0800797374656D2F7372632F73746D333266A3
:104E1800312D7374647065726970682F73746D33A3
:104E280032663130785F657874692E63000000005F
:104E38002E2E2F73797374656D2F7372632F7374AD
:104E48006D333266312D7374647065726970682FC2
:104E580073746D3332663130785F6770696F2E63B3
:104E6800000000002E2E2F73797374656D2F7372F6
:104E7800632F73746D333266312D73746470657289
:104E88006970682F73746D3332663130785F72637E
:104E9800632E63002E2E2F73797374656D2F7372D2
:104EA800632F73746D333266312D73746470657259
:104EB8006970682F73746D3332663130785F746946
:104EC8006D2E63002E2E2F73797374656D2F737298
:104ED800632F73746D333266312D73746470657229
:104EE8006970682F73746D3332663130785F75730B
:104EF8006172742E6300000061626F727428292C3D
:104F08002065786974696E672E2E2E00617373654B
:104F180072745F706172616D2829206661696C65C1
:104F2800643A2066696C6520222573222C206C69FE
:104F38006E652025640A0000537461636B206672F5
:104F4800616D653A0A000000205230203D2020257E
:104F58003038580A00000000205231203D2020251A
:104F68003038580A00000000205232203D20202509
:104F78003038580A00000000205233203D202025F8
:104F88003038580A0000000020523132203D2025D8
:104F98003038580A00000000204C52203D202025BF
:104FA8003038580A00000000205043203D202025BA
:104FB8003038580A0000000020505352203D202568
:104FC8003038580A000000004653522F4641523AE2
:104FD8000A0000002043465352203D202025303847
:104FE800580A00002048465352203D2020253038DA
:104FF800580A00002044465352203D2020253038CE
:10500800580A00002041465352203D2020253038C0
:10501800580A0000204D4D464152203D2025303889
:10502800580A00002042464152203D2020253038B1
:10503800580A00004D6973630A000000204C522F83
:105048004558435F52455455524E3D2025303858F7
:105058000A0000005B486172644661756C745D0A01
:10506800000000005B4275734661756C745D0A0050
:105078005B55736167654661756C745D0A00000075
:10508800706F77000000000000000000000030434F
:1050980000000000000030C3232D302B2000686C76
:1050A8004C00656667454647003031323334353643
:1050B800373839414243444546003031323334357C
:0B50C8003637383961626364656600AA
:1050D400785634120204060800000000010203049A
:1050E4000102030406070809C000002000000000B4
:1050F4000000000000000000010203040607080984
:1051040000A24A04A127C933448BA0409A19B14292
:1051140014AE9B42009454C79A5928C401FFFFFF60
:105124005400002000000000000000000000000007
:10513400000000000000000000000000000000006B
:10514400000000000000000000000000000000005B
:10515400000000000000000000000000000000004B
:10516400000000000000000000000000000000003B
:10517400000000000000000000000000000000002B
:0851840000000000325476988F
:040000050800010DE1
:00000001FF
